:100000000C942A000C9420010C943C000C943C00AD
:100010000C943C000C943C000C943C000C943C0070
:100020000C943C000C943C000C943C000C943C0060
:100030000C943C000C943C000C943C000C943C0050
:100040000C943C000C943C000C943C000C943C0040
:100050000C943C0011241FBECFE5D8E0DEBFCDBF1D
:1000600020E0A0E6B0E001C01D92A136B207E1F7A2
:100070000E9457010C94FB030C94000060E081E4A3
:100080000E94440161E081E40E94440162E081E455
:100090000E94440160E082E40E94440161E082E445
:1000A0000E94440162E082E40E94440140E062E078
:1000B00084E40E942F0162E080E00E94C00280E0A0
:1000C0000E94550380E00E94C303089510E000E001
:1000D000D0E080916000882321F0813009F472C063
:1000E000F8CF60E081E40E944E0161E081E40E946B
:1000F0004E0162E081E40E944E0160E082E40E94D1
:100100004E0161E082E40E944E0162E082E40E94BE
:100110004E01D1111BC080916000811117C060E0B9
:1001200081E40E94490162E082E40E94490163E1A6
:1001300085E00E94E80362E082E40E944E0160E0F4
:1001400081E40E944E0111E000E0D1E0D13019F5C8
:100150008091600081111FC0011102C0D2E001C076
:10016000D0E0C0E00DC061E081E40E94530161E095
:1001700082E40E94530162E085E00E94E803CF5FC1
:10018000CA3088F361E081E40E944E0161E082E4BC
:100190000E944E0112E0D23009F09BCF80916000A6
:1001A000811197CF62E081E40E94490160E082E41E
:1001B0000E94490163E185E00E94E80313E001E049
:1001C000D1E087CF8FEF810F8230B8F562E082E413
:1001D0000E944901C0E00DC061E081E40E9453012A
:1001E00061E082E40E94530162E085E00E94E8033E
:1001F000CF5FCA3088F361E081E40E944E0161E084
:1002000082E40E944E0162E082E40E944E0162E0BC
:1002100081E40E94490160E082E40E94490163E1B7
:1002200085E00E94E80362E081E40E944E0160E004
:1002300082E40E944E0101E0D1E01092600049CFBB
:100240001F920F920FB60F9211248F9381E080932B
:1002500060008F910F900FBE0F901F9018951F9305
:10026000CF93DF93C82FD62F142F40E00E945E015A
:10027000111105C041E06D2F8C2F0E94EB0180E031
:10028000DF91CF911F91089541E00E945E0180E0CF
:10029000089541E00E94EB0180E0089540E00E9453
:1002A000EB0180E008950E94780280E008950E94AA
:1002B0003E000E94660080E090E00895823449F19B
:1002C00018F4813441F07DC0833409F440C0843493
:1002D00009F45AC076C041110DC02AB381E090E004
:1002E00002C0880F991F6A95E2F7809582238ABB26
:1002F00080E00895413009F066C02AB381E090E0C3
:1003000002C0880F991F6A95E2F7822B8ABB80E0B2
:10031000089541110DC027B381E090E002C0880F1D
:10032000991F6A95E2F78095822387BB80E0089544
:10033000413009F04AC027B381E090E002C0880F45
:10034000991F6A95E2F7822B87BB80E008954111DF
:100350000DC024B381E090E002C0880F991F6A9518
:10036000E2F78095822384BB80E00895413079F5DF
:1003700024B381E090E002C0880F991F6A95E2F7EC
:10038000822B84BB80E0089541110DC021B381E030
:1003900090E002C0880F991F6A95E2F7809582234A
:1003A00081BB80E008954130A1F421B381E090E069
:1003B00002C0880F991F6A95E2F7822B81BB80E00B
:1003C000089581E0089581E0089581E0089581E035
:1003D000089581E00895823449F118F4813441F0A0
:1003E0007DC0833409F440C0843409F45AC076C017
:1003F00041110DC02BB381E090E002C0880F991F1E
:100400006A95E2F7809582238BBB80E008954130A6
:1004100009F066C02BB381E090E002C0880F991FFD
:100420006A95E2F7822B8BBB80E0089541110DC0E5
:1004300028B381E090E002C0880F991F6A95E2F727
:100440008095822388BB80E00895413009F04AC03E
:1004500028B381E090E002C0880F991F6A95E2F707
:10046000822B88BB80E0089541110DC025B381E047
:1004700090E002C0880F991F6A95E2F78095822369
:1004800085BB80E00895413079F525B381E090E0A7
:1004900002C0880F991F6A95E2F7822B85BB80E026
:1004A000089541110DC022B381E090E002C0880F91
:1004B000991F6A95E2F78095822382BB80E00895B8
:1004C0004130A1F422B381E090E002C0880F991F6F
:1004D0006A95E2F7822B82BB80E0089581E008955F
:1004E00081E0089581E0089581E0089581E0089514
:1004F0008234A9F018F4813431F035C08334D9F056
:10050000843429F130C02BB381E090E002C0880F21
:10051000991F6A95E2F782278BBB80E0089528B384
:1005200081E090E002C0880F991F6A95E2F7822768
:1005300088BB80E0089525B381E090E002C0880F79
:10054000991F6A95E2F7822785BB80E0089522B360
:1005500081E090E002C0880F991F6A95E2F7822738
:1005600082BB80E0089581E00895813021F48FB747
:1005700080688FBF03C08FB78F778FBF80E00895EB
:10058000CF93DF93C82FD62F81E00E94B502C130F0
:10059000D1F120F0C23009F46AC07DC0D1110BC086
:1005A00085B78E7F85BF85B78D7F85BF8BB780640C
:1005B0008BBF80E077C0D13059F485B7816085BFAB
:1005C00085B78D7F85BF8BB780648BBF80E06AC0A5
:1005D000D23059F485B78E7F85BF85B7826085BFDD
:1005E0008BB780648BBF80E05DC0D33009F055C00D
:1005F00085B7816085BF85B7826085BF8BB7806412
:100600008BBF80E04FC0D1110BC085B78B7F85BFFA
:1006100085B7877F85BF8BB780688BBF80E042C07E
:10062000D13059F485B7846085BF85B7877F85BF92
:100630008BB780688BBF80E035C0D23059F485B766
:100640008B7F85BF85B7886085BF8BB780688BBF80
:1006500080E028C0D33019F585B7846085BF85B7A1
:10066000886085BF8BB780688BBF80E01BC0D230AD
:1006700041F484B78F7B84BF8BB780628BBF80E0EF
:1006800011C0D33071F484B7806484BF8BB78062AB
:100690008BBF80E007C081E005C081E003C081E03E
:1006A00001C081E0DF91CF910895813069F028F099
:1006B000823089F08330B1F01EC083B7877F83BF5B
:1006C00083B78F7B83BF14C083B7886083BF83B732
:1006D0008F7B83BF0DC083B7886083BF83B780647F
:1006E00083BF06C083B7877F83BF83B7806483BF20
:1006F00012BE80E0089581E00895833009F128F466
:10070000813041F0823089F03CC0843021F1853065
:1007100069F137C083B7816083BF83B78D7F83BFA3
:1007200083B78B7F83BF80E0089583B78E7F83BFBD
:1007300083B7826083BF83B78B7F83BF80E00895D8
:1007400083B7816083BF83B7826083BF83B78B7FAA
:1007500083BF80E0089583B78E7F83BF83B78D7F8B
:1007600083BF83B7846083BF80E0089583B78160CF
:1007700083BF83B78D7F83BF83B7846083BF80E0EF
:10078000089581E0089582BF80E0089583B78E7F49
:1007900083BF83B78D7F83BF83B78B7F83BF80E0A9
:1007A0000895882319F0813049F010C008B600FE82
:1007B000FDCF88B7816088BF80E0089508B601FE4C
:1007C000FDCF88B7826088BF80E0089581E00895FA
:1007D000CF93DF93D62F0E947D03C0E004C080E05A
:1007E0000E94D103CF5FCD17D0F30E94C60380E0F3
:0A07F000DF91CF910895F894FFCF38
:00000001FF
